:0700030002090000010800E2
:1001A300758921758DFD758BFDC2ABD28E758CFF64
:1001B300758A9CD2A9D28CC29FD29ED29CD2ACD239
:0E01C300AF750F0075100A750D00750E0A223B
:100026001201A3E508B401FBE4F508C2AC850C99FE
:100036003099FDC299D2ACE50B70E8E50C249F60BF
:100046004324FD605A24F2607314601F24FC70D3AD
:10005600E51015107002150FD3E5109405E50F9401
:100066000050C0750F0075100580B80510E51070BA
:1000760002050FC3940FE50F940040A7750F007596
:10008600100F809FE50E150E7002150DD3E50E9428
:1000960005E50D9400508C750D00750E05808405E0
:1000A6000EE50E7002050DD3940FE50D9400400386
:1000B600020029750D00750E0F020029750F0075D7
:0B00C600100A750D00750E0A020029DB
:03000B0002015D92
:10015D00C0E0C0D0758CFF758A9CD3E50A950EE57D
:10016D0009950D50028001C392A4D3E50A9510E5BF
:10017D0009950F50028001C392A0050AE50A70028D
:10018D000509C394C8E50994004006750900750A70
:06019D0000D0D0D0E032DA
:030023000201D106
:1001D100C0D075D000C00730980CC298AF99750B8C
:0B01E100008F0C750801D007D0D03251
:030000000200D12A
:0C00D100787FE4F6D8FD7581100201185C
:1000DD00020026E493A3F8E493A34003F68001F213
:1000ED0008DFF48029E493A3F85407240CC8C33324
:1000FD00C4540F4420C8834004F456800146F6DFF3
:10010D00E4800B0102040810204080900003E47E7F
:10011D00019360BCA3FF543F30E509541FFEE493E7
:10012D00A360010ECF54C025E060A840B8E493A3AE
:10013D00FAE493A3F8E493A3C8C582C8CAC583CAD9
:10014D00F0A3C8C582C8CAC583CADFE9DEE780BE91
:01000A0000F5
:00000001FF
